{
  "transactions": [
    {
      "hash": "0x1ddc00f261596c166c6ba4f32fe49176ba02e4967cc78ed773d6c9a98847a580",
      "transactionType": "CALL",
      "contractName": null,
      "contractAddress": "0x8c4bcbe6b9ef47855f97e675296fa3f6fafa5f1a",
      "function": "initialize((address,address,uint24,int24,address),uint160)",
      "arguments": [
        "(0x2e234DAe75C793f67A35089C9d99245E1C58470b, 0x5615dEB798BB3E4dFa0139dFa1b3D433Cc23b72f, 500, 60, 0x0000000000000000000000000000000000000000)",
        "79228162514264337593543950336"
      ],
      "transaction": {
        "from": "0x693f7243e7577a3845364f23d856349f15571856",
        "to": "0x8c4bcbe6b9ef47855f97e675296fa3f6fafa5f1a",
        "gas": "0x11610",
        "value": "0x0",
        "input": "0x6276cbbe0000000000000000000000002e234dae75c793f67a35089c9d99245e1c58470b0000000000000000000000005615deb798bb3e4dfa0139dfa1b3d433cc23b72f00000000000000000000000000000000000000000000000000000000000001f4000000000000000000000000000000000000000000000000000000000000003c00000000000000000000000000000000000000000000000000000000000000000000000000000000000000000000000000000001000000000000000000000000",
        "nonce": "0x1",
        "chainId": "0xaa36a7"
      },
      "additionalContracts": [],
      "isFixedGasLimit": false
    }
  ],
  "receipts": [
    {
      "status": "0x1",
      "cumulativeGasUsed": "0xd9c8f2",
      "logs": [
        {
          "address": "0x8c4bcbe6b9ef47855f97e675296fa3f6fafa5f1a",
          "topics": [
            "0xdd466e674ea557f56295e2d0218a125ea4b4f0f6f3307b95f85e6110838d6438",
            "0xb955193db40d0047c436af32fcfaa094a7ebb29bb6ffe30d26d79a347792aba1",
            "0x0000000000000000000000002e234dae75c793f67a35089c9d99245e1c58470b",
            "0x0000000000000000000000005615deb798bb3e4dfa0139dfa1b3d433cc23b72f"
          ],
          "data": "0x00000000000000000000000000000000000000000000000000000000000001f4000000000000000000000000000000000000000000000000000000000000003c000000000000000000000000000000000000000000000000000000000000000000000000000000000000000000000000000000010000000000000000000000000000000000000000000000000000000000000000000000000000000000000000",
          "blockHash": "0x835fda2fcf2f39e4fbb438b50180468fe47cc71f79022b51f96292b25ce1e63a",
          "blockNumber": "0x69512f",
          "transactionHash": "0x1ddc00f261596c166c6ba4f32fe49176ba02e4967cc78ed773d6c9a98847a580",
          "transactionIndex": "0x2c",
          "logIndex": "0x57",
          "removed": false
        }
      ],
      "logsBloom": "0x00000000000000000000100000000000000000000000000000000000000000000000000000000000000000000000000000000000000000000000200000000000000000000000000000000000000000000000000000000000000800000000020000000000000000000000000000000000000000000000000000000000000000000000000000000008000080000000000000800001000000000000000000200000000000000000000000000000008000000000000100000000000000000000000000000000000000000000000000800000000020080000000000000000008000000000000000000000000000000000000000000000000000000000000000000000",
      "type": "0x2",
      "transactionHash": "0x1ddc00f261596c166c6ba4f32fe49176ba02e4967cc78ed773d6c9a98847a580",
      "transactionIndex": "0x2c",
      "blockHash": "0x835fda2fcf2f39e4fbb438b50180468fe47cc71f79022b51f96292b25ce1e63a",
      "blockNumber": "0x69512f",
      "gasUsed": "0xc950",
      "effectiveGasPrice": "0x2a0e4f8",
      "from": "0x693f7243e7577a3845364f23d856349f15571856",
      "to": "0x8c4bcbe6b9ef47855f97e675296fa3f6fafa5f1a",
      "contractAddress": null
    }
  ],
  "libraries": [],
  "pending": [],
  "returns": {},
  "timestamp": 1729310004,
  "chain": 11155111,
  "commit": "90ed861"
}