{
  "transactions": [
    {
      "hash": "0x98f362f3e8dfec5730ad1cd3be1eddee41a44026572d52e3046579a535c1d9b5",
      "transactionType": "CALL",
      "contractName": null,
      "contractAddress": "0x8c4bcbe6b9ef47855f97e675296fa3f6fafa5f1a",
      "function": "initialize((address,address,uint24,int24,address),uint160)",
      "arguments": [
        "(0x4F26A0466F08BA8Ee601C661C0B2e8d75996a48c, 0xb7a5484C5688C2b462aAC4F6A894dF673CA4f194, 500, 60, 0x0000000000000000000000000000000000000000)",
        "79228162514264337593543950336"
      ],
      "transaction": {
        "from": "0x693f7243e7577a3845364f23d856349f15571856",
        "to": "0x8c4bcbe6b9ef47855f97e675296fa3f6fafa5f1a",
        "gas": "0x11610",
        "value": "0x0",
        "input": "0x6276cbbe0000000000000000000000004f26a0466f08ba8ee601c661c0b2e8d75996a48c000000000000000000000000b7a5484c5688c2b462aac4f6a894df673ca4f19400000000000000000000000000000000000000000000000000000000000001f4000000000000000000000000000000000000000000000000000000000000003c00000000000000000000000000000000000000000000000000000000000000000000000000000000000000000000000000000001000000000000000000000000",
        "nonce": "0x4",
        "chainId": "0xaa36a7"
      },
      "additionalContracts": [],
      "isFixedGasLimit": false
    }
  ],
  "receipts": [
    {
      "status": "0x1",
      "cumulativeGasUsed": "0xd89dc0",
      "logs": [
        {
          "address": "0x8c4bcbe6b9ef47855f97e675296fa3f6fafa5f1a",
          "topics": [
            "0xdd466e674ea557f56295e2d0218a125ea4b4f0f6f3307b95f85e6110838d6438",
            "0xfe8a1fe6cb91104f33e783adb8aee137510c2d5aec0f33d2df540a99b46a616c",
            "0x0000000000000000000000004f26a0466f08ba8ee601c661c0b2e8d75996a48c",
            "0x000000000000000000000000b7a5484c5688c2b462aac4f6a894df673ca4f194"
          ],
          "data": "0x00000000000000000000000000000000000000000000000000000000000001f4000000000000000000000000000000000000000000000000000000000000003c000000000000000000000000000000000000000000000000000000000000000000000000000000000000000000000000000000010000000000000000000000000000000000000000000000000000000000000000000000000000000000000000",
          "blockHash": "0x77db8c63637e1cb0090260e745264c8f7a7cf38fe822e7ba20731d46bc02c32b",
          "blockNumber": "0x695162",
          "transactionHash": "0x98f362f3e8dfec5730ad1cd3be1eddee41a44026572d52e3046579a535c1d9b5",
          "transactionIndex": "0x45",
          "logIndex": "0x69",
          "removed": false
        }
      ],
      "logsBloom": "0x80000000000200000000000000000000000000000000000000000000000000000000000000000800000000000000000000000000000000000000100000000000000000000000000000000000000000000000000000000000000800000000000000000000000000000000000000200000000000000000010000000000000000000000000000000008000000080000000000000001000000000000000000200000000000000040000000000000000000000000000000000000000080000000000000000000000000000000000000800000000020000000000000000000000000000000000000000000000000000000000000000000000000000000000000000000",
      "type": "0x2",
      "transactionHash": "0x98f362f3e8dfec5730ad1cd3be1eddee41a44026572d52e3046579a535c1d9b5",
      "transactionIndex": "0x45",
      "blockHash": "0x77db8c63637e1cb0090260e745264c8f7a7cf38fe822e7ba20731d46bc02c32b",
      "blockNumber": "0x695162",
      "gasUsed": "0xc950",
      "effectiveGasPrice": "0x2a371fe",
      "from": "0x693f7243e7577a3845364f23d856349f15571856",
      "to": "0x8c4bcbe6b9ef47855f97e675296fa3f6fafa5f1a",
      "contractAddress": null
    }
  ],
  "libraries": [],
  "pending": [],
  "returns": {},
  "timestamp": 1729310741,
  "chain": 11155111,
  "commit": "90ed861"
}